:020000040000FA
:0400000007EF00F016
:10000800358215ED03F0CAEF03F00CC010F0116A49
:10001800126A0B34103601E311801050156E0FC0B0
:1000280010F0116A126A0E34103601E31180105074
:10003800146E1550D8B40AD01450155CD8B00DD031
:100048001550145C106E180E106407D00DC00AF01D
:100058000EC00BF00FC00CF012001450D8B40AD028
:100068001550145CD8B00DD01450155C106E180ED5
:10007800106407D00AC00AF00BC00BF00CC00CF0DB
:100088001200060E136E0CBE138E0FBE138C0B8E51
:10009800FF0E0A16FF0E0B16000E0C160E8EFF0E24
:1000A8000D16FF0E0E16000E0F161450155CD8B064
:1000B8001BD0D8900D360E360F361406155014186E
:1000C800D8B40DD0130613C010F0070E1016D8B40C
:1000D80006D0EFD7D8900C320B320A32152A1450BA
:1000E8001518D8B41FD0F6D71550145CD8B01AD04C
:1000F800D8900A360B360C36150615501418D8B495
:100108000DD0130613C010F0070E1016D8B406D081
:10011800EFD7D8900F320E320D32142A145015181A
:10012800D8A4F7D713AE0CD0FF0E0A1AFF0E0B1A7D
:10013800FF0E0C1A010E0A26000E0B22000E0C22CE
:1001480013AC0CD0FF0E0D1AFF0E0E1AFF0E0F1A6D
:10015800010E0D26000E0E22000E0F22000E136E49
:100168000A500D260B500E220C500F220FAE0ED047
:10017800FF0E0D1AFF0E0E1AFF0E0F1A010E0D2696
:10018800000E0E22000E0F22010E136E0DC002F09B
:100198000EC003F00FC004F015C005F013C006F040
:1001A800BEEC02F002C00AF003C00BF004C00CF071
:1001B8001200ACEC03F0BCEC03F0000E74EC03F09E
:1001C80002C00AF003C00BF090EC03F00AC02BF059
:1001D8000BC02CF00CC02DF0200E0D6EE50E0E6E2F
:1001E800440E0F6E2BC00AF02CC00BF02DC00CF083
:1001F80068EC01F00AC019F00BC01AF00CC01BF033
:10020800C00E1C6E7F0E1D6E440E1E6EE2EC01F0D9
:1002180019C02EF01AC02FF01BC030F0000E166E59
:10022800FA0E176E440E186E2EC019F02FC01AF071
:1002380030C01BF054EC03F016C02EF017C02FF09E
:1002480018C030F02EC00AF02FC00BF030C00CF0F0
:10025800000E0D6EC00E0E6E400E0F6E68EC01F0B3
:100268000AC02EF00BC02FF00CC030F02EC019F0D1
:100278002FC01AF030C01BF0000E166E800E176EDD
:10028800470E186E54EC03F016C01CF017C01DF092
:1002980018C01EF055EC02F01CC031F01DC032F041
:1002A80034BE06D034500EE1240E335CD8B00AD0E8
:1002B80034BE08D0345004E1190E335CD8A002D003
:1002C80083847BD7839479D70CC010F0116A126AA3
:1002D8000B34103601E311801050136E1350D8A45C
:1002E80007D0000E0A6E000E0B6E000E0C6E120088
:1002F8000FC010F0116A126A0E34103601E3118033
:100308001050186E1850D8A407D0000E0A6E000EB0
:100318000B6E000E0C6E120018507B0F13260CC0CB
:1003280018F00F50181A800E18160B8E0E8EFF0E2E
:100338000D16FF0E0E16000E0F16000E146E000E90
:10034800156E000E166E070E176E0AA006D00D5019
:1003580014260E5015220F501622D8900C320B324C
:100368000A32D8900D360E360F36172EEED7090EF4
:10037800176E0AA006D00D5014260E5015220F50E5
:100388001622D8900C320B320A32D8901632153217
:100398001432172EEED714C002F015C003F016C0A1
:1003A80004F013C005F018C006F0BEEC02F002C05D
:1003B8000AF003C00BF004C00CF012001BC01FF0C1
:1003C800206A216A1A341F3601E320801F50266EE6
:1003D8002650D8A407D0000E196E000E1A6E000E13
:1003E8001B6E12001EC01FF0206A216A1D341F36C2
:1003F80001E320801F50276E2750D8A407D0000E95
:10040800196E000E1A6E000E1B6E1200000E236E7F
:10041800000E246E000E256E2750890F265E1BC025
:1004280027F01E50271A800E27161A8EFF0E19164F
:10043800FF0E1A16000E1B161D8EFF0E1C16FF0E41
:100448001D16000E1E16180E226ED890233624365E
:1004580025361C50195C1D501A581E501B58D8A020
:1004680007D01C50195E1D501A5A1E501B5A238063
:10047800D89019361A361B36222EE7D723C002F039
:1004880024C003F025C004F026C005F027C006F0FC
:10049800BEEC02F002C019F003C01AF004C01BF051
:1004A80012001EC020F0216A226A1D34203601E3A2
:1004B800218020502A6E2A50D8A409D0000E1C6E24
:1004C800000E1D6E000E1E6E000E1F6E1200170E1F
:1004D800206E1CC021F01DC022F01EC023F0202871
:1004E800246E04D0D890233222322132242EFAD717
:1004F8002150256E1D8EFF0E1C16FF0E1D16000EB8
:100508001E161C50266E1D50276E1E50286E296A16
:100518008E0E2A5E2AAE0DD02A50800A8F0FD8A0E0
:10052800CDD7D89029322832273226322A3EF9D719
:100538000DD0170E2A6407D0C1D7D8902636273693
:10054800283629362A062A50D8A4F7D72550D8B4F1
:1005580008D0291E281E271E266C000E27222822B6
:10056800292226C01CF027C01DF028C01EF029C073
:100578001FF012000550D8B405D002500310041023
:10058800D8A40CD0000E026E000E036E000E046E8E
:100598001200052AD890043203320232000E0214E7
:1005A800076E000E0314086EFE0E0414096E075041
:1005B80008100910D8B40CD0ECD7052A010E022671
:1005C800000E0322000E0422D890043203320232B5
:1005D800000E0214076E000E0314086EFF0E0414BA
:1005E800096E075008100910D8B406D0E6D70506DA
:1005F800D89002360336043603BE03D0020E0560D7
:10060800F6D705A0039ED89005320550041206506F
:10061800D8A4048E02C002F003C003F004C004F0A2
:1006280012000600F2A43AD031C0D6FF32C0D7FF7C
:10063800F294334A342A34BE06D0345010E13B0ECB
:10064800335CD8B00CD083B003D0016A012A01D042
:10065800016A83500118FE0B0118836E0ED034BE58
:1006680006D0345006E13D0E335CD8B002D08390FA
:1006780004D0000E346E000E336E33043410D8A448
:100688000DD083A202D0010E01D0000EFF0A016E28
:10069800014683500118FD0B0118836E3592110035
:1006A80019501A101B10D8B406D0000E191A000ED3
:1006B8001A1A800E1B1A16C00AF017C00BF018C0C1
:1006C8000CF019C00DF01AC00EF01BC00FF009ECA9
:1006D80000F00AC016F00BC017F00CC018F012009A
:1006E800086E08C004F00F0E0416D8900436D8908F
:1006F8000434C210C26EC282C2B2FED7C450056EA4
:10070800046AC3500424066E000E0520076E06C056
:1007180002F007C003F01200000E0D6E0BAE06D0FB
:100728000A6C0B1ED8B00B2A010E0D6E0AC002F01F
:100738000BC003F0046A8E0E056E0DC006F0BEEC09
:1007480002F002C00AF003C00BF004C00CF0120063
:10075800000E956E000E836E9268010EC26E0E0E2C
:10076800C16E800EC06EF28EF28CF28AF294120084
:10077800D59ED59CD59AD598D586D590D592D59421
:10078800FB0ED76E680ED66ED58E1200346A336AA9
:0A079800359035920001DDEF00F00E
:020000040020DA
:08000000FFFFFFFFFFFFFFFF00
:020000040030CA
:0E000000030E191EFF0185FF0FC00FE00F4019
:00000001FF
