:020000040000FA
:0400000007EF00F016
:0A000800538271ED0DF06DEF11F061
:10080000002E31660072706D002564007573000063
:100810001050800B196E105010241F6E0FAE13EF86
:1008200004F015EF04F016EF04F01F801F50D8B449
:100830001CEF04F01EEF04F031EF04F01F28D8A4E1
:1008400024EF04F026EF04F02EEF04F0000E0D6EFE
:10085000000E0E6E000E0F6E000E106E0F8E39EF32
:1008600004F0000E0D6E000E0E6E000E0F6E000EE8
:10087000106E1450800B191A145014241E6E13AEEF
:1008800044EF04F046EF04F047EF04F01E801E50E2
:10089000D8B44DEF04F04FEF04F062EF04F01E28DF
:1008A000D8A455EF04F057EF04F05FEF04F0000E0A
:1008B000116E000E126E000E136E000E146E138E6B
:1008C0006AEF04F0000E116E000E126E000E136E31
:1008D000000E146E1E50D8B470EF04F072EF04F0E6
:1008E0007AEF04F01F50D8A478EF04F07AEF04F008
:1008F00084EF04F0000E0D6E000E0E6E000E0F6EF3
:10090000000E106E1CEF06F013500D02F3CF24F012
:10091000F4CF25F024501A6E1B6A1C6A1D6A2550FC
:10092000206E216A226A236A12500E02F3CF24F04D
:10093000F4CF25F024501A26000E1B221C221D2263
:1009400025502026000E21222222232211500F02A0
:10095000F3CF24F0F4CF25F024501A26000E1B22EA
:100960001C221D2225502026000E21222222232275
:100970001CC01DF01BC01CF01AC01BF01A6A1150DD
:100980000E02F3CF24F0F4CF25F024501A26255080
:100990001B22000E1C22000E1D2212500D02F3CF4E
:1009A00024F0F4CF25F024501A2625501B22000EE7
:1009B0001C22000E1D221CC01DF01BC01CF01AC002
:1009C0001BF01A6A11500D02F3CF24F0F4CF25F07A
:1009D00024501A2625501B22000E1C22000E1D2218
:1009E00013500E02F3CF24F0F4CF25F0245020262C
:1009F00025502122000E2222000E232212500F0227
:100A0000F3CF24F0F4CF25F02450202625502122C6
:100A1000000E2222000E232213500F02F3CF24F0E7
:100A2000F4CF25F02450156E2550166E176A186AFB
:100A300017C018F016C017F015C016F0156A15503B
:100A400020261650212217502222185023221AC085
:100A500015F01BC016F01CC017F01DC018F0190EC1
:100A600037EF05F0D8901832173216321532E82ECB
:100A700032EF05F015502026165021221750222261
:100A8000185023221CC01DF01BC01CF01AC01BF004
:100A90001A6A1E501FC015F0166A1526000E16227F
:100AA000820E1524246EFF0E1620256E6DEF05F0C4
:100AB000D89020362136223623361DAE62EF05F05F
:100AC00064EF05F065EF05F02080D8901A361B36EC
:100AD0001C361D362406D8A0250622AE72EF05F07E
:100AE00074EF05F058EF05F0000E1E6E1DAE7BEFA3
:100AF00005F07DEF05F0A1EF05F0FF0E1A14156E5D
:100B0000FF0E1B14166EFF0E1C14176E7F0E1D14A5
:100B1000186E1550161017101810D8B492EF05F073
:100B200094EF05F098EF05F0010E1E6EA1EF05F0B1
:100B300020A09DEF05F09FEF05F0A1EF05F094EFE9
:100B400005F01E50D8B4A7EF05F0A9EF05F0CDEFE2
:100B500005F0010E2026000E21222222232223A0AE
:100B6000B4EF05F0B6EF05F0CDEF05F020C015F0BD
:100B700021C016F022C017F023C018F01834183224
:100B800017321632153215C020F016C021F017C0EA
:100B900022F018C023F0244A252A25BED8EF05F0FC
:100BA000255008E12428D8A0D8EF05F0DAEF05F0A9
:100BB000E4EF05F0000E206E000E216E800E226E16
:100BC0007F0E236E12EF06F025BEF1EF05F02550E3
:100BD00006E12404D8B0EFEF05F0F1EF05F0FDEFEA
:100BE00005F0000E206E000E216E000E226E000E2B
:100BF000236E000E196E12EF06F024C01FF0FF0ED8
:100C00002016FF0E21167F0E2216000E23161FA09F
:100C10000CEF06F00EEF06F00FEF06F0228ED890E4
:100C20001F30236E1950231220C00DF021C00EF08A
:100C300022C00FF023C010F012001050800B1D6E68
:100C400010501024246E0FAE28EF06F02AEF06F0A5
:100C50002BEF06F024802450D8B431EF06F033EFA8
:100C600006F048EF06F02428D8A439EF06F03BEF51
:100C700006F043EF06F0000E0D6E000E0E6E000E35
:100C80000F6E000E106E0F8E000E106E50EF06F0FD
:100C9000000E0D6E000E0E6E000E0F6E000E106E2A
:100CA0001450800B1D1A14501424256E13AE5BEFE4
:100CB00006F05DEF06F05EEF06F025802550D8B413
:100CC00064EF06F066EF06F07BEF06F02528D8A467
:100CD0006CEF06F06EEF06F076EF06F0000E116E88
:100CE000000E126E000E136E000E146E138E000EA8
:100CF000146E83EF06F0000E116E000E126E000EE1
:100D0000136E000E146E1150121013101410D8A48C
:100D10008CEF06F08EEF06F0A6EF06F0000E0D6EDB
:100D2000000E0E6E000E0F6E000E106E800E0F1273
:100D30007F0E10121D5010120DC00DF00EC00EF0DF
:100D40000FC00FF010C010F0E9EF07F02450D8A446
:100D5000ACEF06F0AEEF06F0B8EF06F0000E0D6E49
:100D6000000E0E6E000E0F6E000E106EE9EF07F013
:100D7000255024C015F0166A155E000E165A7F0E17
:100D800015241E6E000E16201F6E0DC019F00EC029
:100D90001AF00FC01BF010C01CF0000E0D6E000EFC
:100DA0000E6E000E0F6E000E106E000E206E000E06
:100DB000216E000E226E000E236E000E256E19EFBE
:100DC00007F02550D8B4E7EF06F0E9EF06F000EFA2
:100DD00007F0D89019361A361B361C36D8900D36C7
:100DE0000E360F36103623AEF8EF06F0FAEF06F0A7
:100DF000FBEF06F00D80D8902036213622362336C0
:100E00001150195C12501A5813501B5814501C588A
:100E1000D8A00DEF07F00FEF07F018EF07F0238CC5
:100E20001150195E12501A5A13501B5A14501C5A62
:100E3000252A190E25641FEF07F021EF07F0E1EFD7
:100E400006F019501A101B101C10D8B42AEF07F026
:100E50002CEF07F044EF07F0208044EF07F0D89024
:100E60000D360E360F36103623AE39EF07F03BEF56
:100E700007F03CEF07F00D80D8902036213622365F
:100E800023361E06D8A01F060FAE49EF07F04BEF22
:100E900007F02FEF07F0000E256E23AE52EF07F09C
:100EA00054EF07F078EF07F0FF0E2014156EFF0ED9
:100EB0002114166EFF0E2214176E7F0E2314186E67
:100EC0001550161017101810D8B469EF07F06BEF13
:100ED00007F06FEF07F0010E256E78EF07F00DA019
:100EE00074EF07F076EF07F078EF07F06BEF07F09D
:100EF0002550D8B47EEF07F080EF07F0A4EF07F09D
:100F0000010E0D26000E0E220F22102210A08BEFD4
:100F100007F08DEF07F0A4EF07F00DC015F00EC03D
:100F200016F00FC017F010C018F01834183217322E
:100F30001632153215C00DF016C00EF017C00FF0A6
:100F400018C010F01E4A1F2A1FBEAFEF07F01F5037
:100F500008E11E28D8A0AFEF07F0B1EF07F0BCEF13
:100F600007F0000E1F6E1E68000E0D6E000E0E6E56
:100F7000000E0F6E000E106E1FBEC9EF07F01F505F
:100F800006E11E04D8B0C7EF07F0C9EF07F0D7EFAE
:100F900007F0000E1F6E000E1E6E000E0D6E000E8E
:100FA0000E6E000E0F6E000E106E000E1D6E1EC037
:100FB00024F024A0DEEF07F0E0EF07F0E3EF07F006
:100FC0000F8EE4EF07F00F9ED8902430106E9AEF4A
:100FD00006F012002AC068F02BC069F02CC06AF03D
:100FE0002DC06BF02EC06CF02FC06DF030C06EF0D5
:100FF00031C06FF000016FBF00EF08F003EF08F0A1
:10100000010E04EF08F0000E666F676B6651671102
:10101000D8B40DEF08F00FEF08F01FEF08F06F1FC6
:101020006E1F6D1F6C1F6B1F6A1F691F686D000E9E
:1010300069236A236B236C236D236E236F234BBEBE
:1010400024EF08F026EF08F027EF08F04C924BBE93
:1010500034EF08F04B5006E14A04D8B032EF08F004
:1010600034EF08F03AEF08F0000E636F010E626F84
:101070003EEF08F04AC062F04BC063F0A4C064F0D9
:10108000A5C065F066516711D8A449EF08F04BEF91
:1010900008F052EF08F04CA450EF08F052EF08F0BF
:1010A00055EF08F06407D8A06507000E716F1F0E9A
:1010B000706F000EC96FDAEF08F07007D8A07107E3
:1010C000AA0E7025D96E000E7121DA6E68C00DF07F
:1010D00069C00EF06AC00FF06BC010F06CC011F068
:1010E0006DC012F06EC013F06FC014F00A0E156ED2
:1010F000000E166E000E176E000E186E000E196EA2
:10110000000E1A6E000E1B6E000E1C6EBFEC0CF073
:101110000DC032F00EC033F00FC034F010C035F007
:1011200011C036F012C037F013C038F014C039F0D7
:1011300032C01FF034C020F01DEC11F01F50300FF2
:10114000DF6E00016207D8A063076407D8A06507B7
:1011500068C00DF069C00EF06AC00FF06BC010F0EF
:101160006CC011F06DC012F06EC013F06FC014F0BF
:101170000A0E156E000E166E000E176E000E186E1B
:10118000000E196E000E1A6E000E1B6E000E1C6E05
:10119000FBEC0BF00DC068F00EC069F00FC06AF0F8
:1011A00010C06BF011C06CF012C06DF013C06EF087
:1011B00014C06FF0000171BFE6EF08F0715108E153
:1011C0007005D8A0E6EF08F0E8EF08F018EF09F096
:1011D000685169116A116B116C116D116E116F11EB
:1011E000D8A4F5EF08F0F7EF08F05DEF08F063BF63
:1011F00004EF09F0635106E16205D8B002EF09F08F
:1012000004EF09F05DEF08F065BF0FEF09F06551DD
:1012100008E16405D8A00FEF09F011EF09F018EF0D
:1012200009F04CB216EF09F018EF09F05DEF08F085
:1012300066516711D8A41FEF09F021EF09F028EFDC
:1012400009F04CA426EF09F028EF09F046EF09F069
:101250007007D8A0710766516711D8A432EF09F062
:1012600034EF09F03AEF09F0000E616F2B0E606F5A
:101270003EEF09F0000E616F2D0E606FAA0E702513
:10128000D96E000E7121DA6E60C0DFFF28C01DF03C
:1012900029C01EF0AA0E70251F6E000E7121206E4F
:1012A00064C021F065C022F0D6EC0EF01DC028F01D
:1012B0001EC029F0120058EC11F080EC11F0F2EC95
:1012C0000DF0050E456E0F0E446EF10EE82EFED7A2
:1012D000442EFCD7452EFAD700F0010ED7EC10F0C3
:1012E000980E0001806F000E816F090E826F080E4C
:1012F000836F4FC084F050C085F051C086F052C05B
:1013000087F0AEEC10F0010E116E070E13EC10F02A
:10131000050E456E0F0E446EF10EE82EFED7442EDC
:10132000FCD7452EFAD700F0980E0F6E000E106E07
:1013300037EC0FF00C0E0F6E080E106E37EC0FF03E
:101340004FC00DF050C00EF051C00FF052C010F061
:101350003C0E116E000E126E000E136E000E146E17
:10136000DEEC0FF00DC019F00EC01AF00FC01BF02C
:1013700010C01CF0000E21EC0BF019C0CAF01AC00E
:10138000CBF01BC0CCF01CC0CDF0000E0D6E000EDB
:101390000E6E800E0F6E3F0E106ECAC011F0CBC0E5
:1013A00012F0CCC013F0CDC014F01DEC06F00DC04F
:1013B000CAF00EC0CBF00FC0CCF010C0CDF0CAC048
:1013C0000DF0CBC00EF0CCC00FF0CDC010F0000E71
:1013D000116E000E126E700E136E420E146E08EC3B
:1013E00004F00DC0CAF00EC0CBF00FC0CCF010C09E
:1013F000CDF0CAC00DF0CBC00EF0CCC00FF0CDC008
:1014000010F0000E116E240E126E740E136E490E43
:10141000146E08EC04F00DC0CAF00EC0CBF00FC083
:10142000CCF010C0CDF0920E0001806F000E816FE5
:10143000010E826F080E836FCAC084F0CBC085F0A6
:10144000CCC086F0CDC087F0AEEC10F0020E116E6D
:10145000050E13EC10F0050E456E0F0E446EF10EE6
:10146000E82EFED7442EFCD7452EFAD700F0920E78
:101470000F6E000E106E37EC0FF0050E0F6E080E9B
:10148000106E37EC0FF070EF09F007EF00F03CC082
:10149000D9FF3DC0DAFFDECFF6FFDDCFF7FF080052
:1014A000F550250AD8A457EF0AF059EF0AF005EFD6
:1014B0000BF03CC0D9FF3DC0DAFFDE2A000EDD2272
:1014C000000E0001A56F000EA46FA4C04CF0A5C0D3
:1014D0004DF04A684B683CC0D9FF3DC0DAFFDECF13
:1014E000F6FFDDCFF7FF0800F550640AD8B47BEFB4
:1014F0000AF07DEF0AF08FEF0AF03CC0D9FF3DC043
:10150000DAFFDECFF6FFDDCFF7FF0800F550690AFE
:10151000D8A48DEF0AF08FEF0AF0CFEF0AF03CC0AD
:10152000D9FF3DC0DAFFDE2A000EDD223EC0D9FF22
:101530003FC0DAFFDFCF40F0020EDE26DFCF41F002
:10154000000EDD2240C0D9FF41C0DAFFDECF72F0CD
:10155000DDCF73F0000E73BFFF0E746F756F766F83
:10156000776F786F796F3AC028F03BC029F072C06E
:101570002AF073C02BF074C02CF075C02DF076C02B
:101580002EF077C02FF078C030F079C031F0EAEC5F
:1015900007F028C03AF029C03BF020EF0BF03CC028
:1015A000D9FF3DC0DAFFDECFF6FFDDCFF7FF080041
:1015B000F550250AD8A4DFEF0AF0E1EF0AF0F8EFC2
:1015C0000AF03CC0D9FF3DC0DAFFDE2A000EDD2262
:1015D000000E0E6E250E0D6E3AC00FF03BC010F0DF
:1015E00071EC0EF0000E3B6E010E3A6E20EF0BF028
:1015F0003CC0D9FF3DC0DAFFDE2A000EDD22000E1E
:101600003B6E000E3A6E20EF0BF03CC0D9FF3DC0A0
:10161000DAFFDECFF6FFDDCFF7FF0800F5500D6EE5
:101620000E6A3AC00FF03BC010F071EC0EF03CC0F7
:10163000D9FF3DC0DAFFDE2A000EDD22F2EF0AF00C
:101640001200216E2150D8B428EF0BF02AEF0BF0D6
:101650004CEF0BF01CBE31EF0BF02FEF0BF04CEF0B
:101660000BF019C01DF01AC01EF01BC01FF01CC0EB
:1016700020F01D1E1E1E1F1E201E1D2A000E1E22D3
:101680001F2220221DC023F01EC024F01FC025F001
:1016900020C026F054EF0BF019C023F01AC024F03C
:1016A0001BC025F01CC026F019501A101B101C106E
:1016B000D8A45DEF0BF05FEF0BF069EF0BF0000EBD
:1016C000196E000E1A6E000E1B6E000E1C6EFAEFE5
:1016D0000BF0960E226E73EF0BF0222AD890263272
:1016E000253224322332000E23141D6E000E2414E2
:1016F0001E6E000E25141F6EFE0E2614206E1D5049
:101700001E101F102010D8A488EF0BF08AEF0BF0EA
:101710006DEF0BF098EF0BF0222A010E2326000E3E
:10172000242225222622D890263225322432233222
:10173000000E23141D6E000E24141E6E000E2514C0
:101740001F6EFF0E2614206E1D501E101F1020103D
:10175000D8A4ADEF0BF0AFEF0BF08CEF0BF0B7EFC1
:101760000BF02206D890233624362536263625BEA1
:10177000BCEF0BF0BEEF0BF0C6EF0BF0020E2260D9
:10178000C4EF0BF0C6EF0BF0B1EF0BF022B0CBEFD4
:101790000BF0CDEF0BF0CEEF0BF0259ED890223260
:1017A00022C01DF01E6A1F6A206A1DC020F01F6A39
:1017B0001E6A1D6A1D5023121E5024121F5025122E
:1017C000205026122150D8B4E8EF0BF0EAEF0BF0CE
:1017D000F2EF0BF01CBEF1EF0BF0EFEF0BF0F2EFBE
:1017E0000BF0268E23C019F024C01AF025C01BF080
:1017F00026C01CF01200000E1E6E1CBE04EF0CF082
:1018000002EF0CF016EF0CF01C1E1B1E1A1E191E08
:10181000181E171E161E156C000E162217221822EF
:1018200019221A221B221C22010E1E6E14BE1DEF4D
:101830000CF01BEF0CF02FEF0CF0141E131E121EF9
:10184000111E101E0F1E0E1E0D6C000E0E220F22FA
:1018500010221122122213221422010E1E1A20EE2F
:101860001FF0070EDE6AE806FDE21550161017108D
:10187000181019101A101B101C10D8B442EF0CF0DD
:1018800044EF0CF096EF0CF0010E1D6E52EF0CF0D1
:10189000D890153616361736183619361A361B36BE
:1018A0001C361D2A1CAE57EF0CF059EF0CF048EF18
:1018B0000CF0D8901F3620362136223623362436B7
:1018C0002536263615500D5C16500E5817500F58F9
:1018D00018501058195011581A5012581B501358BC
:1018E0001C501458D8A077EF0CF079EF0CF08AEF69
:1018F0000CF015500D5E16500E5A17500F5A185016
:10190000105A1950115A1A50125A1B50135A1C507F
:10191000145A1F80D8901C321B321A3219321832D6
:101920001732163215321D2E59EF0CF01E50D8B456
:101930009CEF0CF09EEF0CF0AEEF0CF0261E251E77
:10194000241E231E221E211E201E1F6C000E20227C
:101950002122222223222422252226221FC00DF00A
:1019600020C00EF021C00FF022C010F023C011F0F3
:1019700024C012F025C013F026C014F01200000E8F
:101980001E6E14BEC8EF0CF0C6EF0CF0DAEF0CF0D0
:10199000141E131E121E111E101E0F1E0E1E0D6C85
:1019A000000E0E220F2210221122122213221422C4
:1019B000010E1E6E1CBEE1EF0CF0DFEF0CF0F1EF3C
:1019C0000CF01C1E1B1E1A1E191E181E171E161E9A
:1019D000156C000E16221722182219221A221B2219
:1019E0001C22155016101710181019101A101B1061
:1019F0001C10D8B4FEEF0CF000EF0DF048EF0DF026
:101A0000010E1D6E0EEF0DF0D890153616361736F6
:101A1000183619361A361B361C361D2A1CAE13EF23
:101A20000DF015EF0DF004EF0DF015500D5C165094
:101A30000E5817500F5818501058195011581A5066
:101A400012581B5013581C501458D8A02AEF0DF0F0
:101A50002CEF0DF03CEF0DF015500D5E16500E5AA8
:101A600017500F5A1850105A1950115A1A50125A2A
:101A70001B50135A1C50145AD8901C321B321A3265
:101A8000193218321732163215321D2E15EF0DF09D
:101A90001E50D8B44EEF0DF050EF0DF060EF0DF08A
:101AA000141E131E121E111E101E0F1E0E1E0D6C74
:101AB000000E0E220F2210221122122213221422B3
:101AC0000DC00DF00EC00EF00FC00FF010C010F0E2
:101AD00011C011F012C012F013C013F014C014F0B2
:101AE00012000600F2A277EF0DF079EF0DF0F0EFA3
:101AF0000DF00001A851A911D8A481EF0DF083EFDA
:101B00000DF0E4EF0DF0D6CF9EF0D7CF9FF0A06B95
:101B1000A16B000ED76E000ED66E46509E5D4F6EC6
:101B200047509F59506E4850A059516E4950A15985
:101B3000526E46C001F047C002F048C003F049C0F1
:101B400004F0030E056E000E066E000E076E000E0A
:101B5000086E48EC10F001504F5C02505058035092
:101B6000515804505258D8B0B8EF0DF0BAEF0DF0FC
:101B7000D1EF0DF052505110501009E1A60E4F5CFC
:101B8000D8A0C5EF0DF0C7EF0DF0D1EF0DF0465026
:101B90004F26475050224850512249505222DDEFE3
:101BA0000DF0D89046344F6E4734506E4834516E25
:101BB0004934526E0001A64BA72BF292F19C000112
:101BC000A84BA92BF0EF0DF0D6CF46F0D7CF47F0BA
:101BD000486A496AF292F18C000EA96F000EA86F54
:101BE00053921100000E4E6E839083928398839AD5
:101BF000839C839E959095929598959A959C959E99
:101C0000020E126EA00E116E920EE82EFED7112E4D
:101C1000FCD7122EFAD700D0030ED7EC10F0340EFA
:101C2000116EF20EE82EFED7112EFCD7030ED7EC64
:101C300010F0340E116EF20EE82EFED7112EFCD7E6
:101C4000030ED7EC10F0340E116EF20EE82EFED714
:101C5000112EFCD7020ED7EC10F0340E116EF20EDE
:101C6000E82EFED7112EFCD7280ED7EC10F0030E6D
:101C7000126E080E116E770EE82EFED7112EFCD7CD
:101C8000122EFAD700F00C0ED7EC10F0030E126EE5
:101C9000080E116E770EE82EFED7112EFCD7122EED
:101CA000FAD700F0010ED7EC10F0030E126E080EFA
:101CB000116E770EE82EFED7112EFCD7122EFAD712
:101CC00000F0060ED7EC10F0030E126E080E116E27
:101CD000770EE82EFED7112EFCD7122EFAD700F081
:101CE00012000F501010D8B478EF0EF07AEF0EF00B
:101CF00083EF0EF00F501010D8A481EF0EF083EF99
:101D00000EF088EF0EF00D508EEC11F0D5EF0EF0C6
:101D100020EE04F00F50D9261050DA22DE50DE10EB
:101D2000D8B495EF0EF097EF0EF0B2EF0EF020EE74
:101D300004F00F50D9261050DA2210EE02F00F50A6
:101D4000E1261050E222DE50E65CE650800A156E75
:101D5000DE50800A1558D8B0B0EF0EF0B2EF0EF09A
:101D6000D5EF0EF020EE02F00F50D9261050DA22F7
:101D7000DECF11F0DDCF12F00FC0D9FF10C0DAFFB7
:101D8000DECF13F0DDCF14F011501324D96E1250B2
:101D90001420DA6E0DC0DFFF20EE02F00F50D926BE
:101DA0001050DA22DE2A000EDD2212004CA0DBEFFA
:101DB0000EF0DDEF0EF0E7EF0EF01FC016F020C0C2
:101DC00017F01DC018F01EC019F0FBEC10F022BE79
:101DD000ECEF0EF0EEEF0EF0F4EF0EF021C026F077
:101DE00022C027F0F8EF0EF0000E276E000E266ED0
:101DF000000E256E000E246E0AEF0FF0000E0E6E20
:101E0000200E0D6E1DC00FF01EC010F071EC0EF014
:101E1000244A252A2650245C2550800A236E275008
:101E2000800A2358D8A017EF0FF019EF0FF0FEEF3C
:101E30000EF04CB01EEF0FF020EF0FF02AEF0FF076
:101E40001FC016F020C017F01DC018F01EC019F0FA
:101E5000FBEC10F01FC00DF020C00EF03DEC11F0B7
:101E600026500D241D6E27500E201E6E1200000EEF
:101E7000146E010E4E6E71EF0FF014500F24116EA0
:101E8000000E1020126E11C0F6FF12C0F7FFF86AA4
:101E9000070EF76403D00800F55005D0F6CFE9FF30
:101EA000F7CFEAFFEF50136E13380F0B90EC0FF0E3
:101EB00014500F24116E000E1020126E11C0F6FF88
:101EC00012C0F7FFF86A070EF76403D00800F55058
:101ED00005D0F6CFE9FFF7CFEAFFEF5090EC0FF017
:101EE000142A14500F24116E000E1020126E11C00F
:101EF000F6FF12C0F7FFF86A070EF76403D0080078
:101F0000F55005D0F6CFE9FFF7CFEAFFEF50000913
:101F1000D8A48DEF0FF08FEF0FF03DEF0FF0120010
:101F20000E6E4EB002D0839001D083800EC00DF0B3
:101F3000010E0D160D3A83500D18EF0B0D18836E20
:101F40000EC00DF0D8900D32010E0D160D3A0D4653
:101F500083500D18DF0B0D18836E0EC00DF0D89056
:101F60000D32D8900D32010E0D160D3A0D460D466C
:101F700083500D18BF0B0D18836E0EC00DF0D89056
:101F80000D32D8900D32D8900D32010E0D160D3253
:101F90000D3283500D187F0B0D18836E839200D085
:101FA00000D000D000D0838200D000D000D000D07C
:101FB0008392A00E00D0E82EFDD71200000E156E01
:101FC000000E166E000E176E000E186E0DA0EBEFD1
:101FD0000FF0EDEF0FF0F5EF0FF011501526125046
:101FE00016221350172214501822D8901136123688
:101FF00013361436D89010320F320E320D320D5087
:102000000E100F101010D8A408EF10F00AEF10F007
:10201000E6EF0FF015C00DF016C00EF017C00FF070
:1020200018C010F01200146E2EEF10F01450BF0FF5
:10203000D7EC10F047EF10F01450930FD7EC10F0DE
:1020400047EF10F01450D30FD7EC10F047EF10F01B
:1020500014507F0FD7EC10F047EF10F01150126EB4
:10206000136A1350000AD8B438EF10F028EF10F0BC
:102070001250020AD8B416EF10F0010AD8B41CEFBF
:1020800010F0070AD8B422EF10F028EF10F0120079
:10209000000E096E000E0A6E000E0B6E000E0C6E26
:1020A00001A055EF10F057EF10F05FEF10F0055062
:1020B000092606500A2207500B2208500C22D890FD
:1020C0000536063607360836D89004320332023217
:1020D00001320150021003100410D8A472EF10F066
:1020E00074EF10F050EF10F009C001F00AC002F0D8
:1020F0000BC003F00CC004F012007CC042F07DC0A5
:1021000043F0000E0001A36F000EA26F9BEF10F0D2
:102110007AC03AF07BC03BF0420E3C6E000E3D6E42
:102120007EC03EF07FC03FF047EC0AF03A5000011D
:10213000A2273B50A32342C0F6FF43C0F7FF08008D
:10214000F5500009D8A4A7EF10F0A9EF10F088EF20
:1021500010F0A2C07AF0A3C07BF01200840E000140
:102160008A6F000E8B6F80C08CF081C08DF0000EE6
:102170008F6F000E8E6F000E916F000E906F8C0EA1
:102180007A6F000E7B6F82C07CF083C07DF08A0E78
:102190007E6F000E7F6F7DEC10F000018E51802568
:1021A000D96E8F518121DA6E000EDF6E1200106E33
:1021B000000E4E6E10380F0B90EC0FF0105090EC9C
:1021C0000FF01004D8B4E7EF10F0E9EF10F0F2EFE1
:1021D00010F0020E1018D8A4F0EF10F0F2EF10F08B
:1021E000FAEF10F0150E0F6EC60EE82EFED70F2E6A
:1021F000FCD700D01200000E1C6E000E1B6E0CEF00
:1022000011F01AC00DF00E6A18C00FF019C010F0CE
:1022100071EC0EF01B4A1C2A1B501624D96E1C5060
:102220001720DA6EDF501A6E1A50D8A41AEF11F088
:102230001CEF11F001EF11F0120020BE2AEF11F097
:10224000205006E11F04D8B028EF11F02AEF11F05A
:1022500038EF11F01FC021F020C022F0211E221EF5
:10226000214A222A21C01FF022C020F03CEF11F0A9
:102270001FC01FF020C020F012000DC00FF00EC0D4
:1022800010F045EF11F00D4A0E2A0DC0D9FF0EC017
:10229000DAFFDF50D8A44FEF11F051EF11F043EF08
:1022A00011F00F500D5C0D6E10500E580E6E120096
:1022B000926893688190000E956E000E836E010EF9
:1022C000C26E0E0EC16E800EC06EF28EF28CF29A4D
:1022D000F288F294F292F18C120000EE9EF0300E31
:1022E000EE6AE806FDE100EE46F00D0EEE6AE80645
:1022F000FDE153905392000EF86E00015BEF09F080
:10230000D59ED59CD59AD598D596D590D582D5947D
:0E231000000ED76E000ED66ED58E1200120093
:020000040020DA
:08000000FFFFFFFFFFFFFFFF00
:020000040030CA
:0E0000000B0E191EFF0185FF0FC00FE00F4011
:00000001FF
